{
  "contractName": "Donation",
  "abi": [
    {
      "inputs": [
        {
          "internalType": "uint256",
          "name": "",
          "type": "uint256"
        }
      ],
      "name": "people",
      "outputs": [
        {
          "internalType": "uint256",
          "name": "id",
          "type": "uint256"
        },
        {
          "internalType": "string",
          "name": "name",
          "type": "string"
        },
        {
          "internalType": "uint256",
          "name": "amount",
          "type": "uint256"
        },
        {
          "internalType": "address",
          "name": "sender_address",
          "type": "address"
        }
      ],
      "stateMutability": "view",
      "type": "function"
    },
    {
      "inputs": [
        {
          "internalType": "string",
          "name": "name",
          "type": "string"
        }
      ],
      "name": "addPerson",
      "outputs": [],
      "stateMutability": "payable",
      "type": "function"
    }
  ],
  "bytecode": "0x60806040526000805534801561001457600080fd5b506106e1806100246000396000f3fe6080604052600436106100295760003560e01c80630bf2ee8d1461002e5780639e7a13ad1461004a575b600080fd5b61004860048036038101906100439190610366565b61008a565b005b34801561005657600080fd5b50610071600480360381019061006c91906103a7565b61016e565b6040516100819493929190610427565b60405180910390f35b600160008082825461009c91906104f0565b92505081905550604051806080016040528060005481526020018281526020013481526020013373ffffffffffffffffffffffffffffffffffffffff168152506001600080548152602001908152602001600020600082015181600001556020820151816001019080519060200190610116929190610246565b506040820151816002015560608201518160030160006101000a81548173ffffffffffffffffffffffffffffffffffffffff021916908373ffffffffffffffffffffffffffffffffffffffff16021790555090505050565b6001602052806000526040600020600091509050806000015490806001018054610197906105c4565b80601f01602080910402602001604051908101604052809291908181526020018280546101c3906105c4565b80156102105780601f106101e557610100808354040283529160200191610210565b820191906000526020600020905b8154815290600101906020018083116101f357829003601f168201915b5050505050908060020154908060030160009054906101000a900473ffffffffffffffffffffffffffffffffffffffff16905084565b828054610252906105c4565b90600052602060002090601f01602090048101928261027457600085556102bb565b82601f1061028d57805160ff19168380011785556102bb565b828001600101855582156102bb579182015b828111156102ba57825182559160200191906001019061029f565b5b5090506102c891906102cc565b5090565b5b808211156102e55760008160009055506001016102cd565b5090565b60006102fc6102f7846104a4565b610473565b90508281526020810184848401111561031457600080fd5b61031f848285610582565b509392505050565b600082601f83011261033857600080fd5b81356103488482602086016102e9565b91505092915050565b60008135905061036081610694565b92915050565b60006020828403121561037857600080fd5b600082013567ffffffffffffffff81111561039257600080fd5b61039e84828501610327565b91505092915050565b6000602082840312156103b957600080fd5b60006103c784828501610351565b91505092915050565b6103d981610546565b82525050565b60006103ea826104d4565b6103f481856104df565b9350610404818560208601610591565b61040d81610683565b840191505092915050565b61042181610578565b82525050565b600060808201905061043c6000830187610418565b818103602083015261044e81866103df565b905061045d6040830185610418565b61046a60608301846103d0565b95945050505050565b6000604051905081810181811067ffffffffffffffff8211171561049a57610499610654565b5b8060405250919050565b600067ffffffffffffffff8211156104bf576104be610654565b5b601f19601f8301169050602081019050919050565b600081519050919050565b600082825260208201905092915050565b60006104fb82610578565b915061050683610578565b9250827fffffffffffffffffffffffffffffffffffffffffffffffffffffffffffffffff0382111561053b5761053a6105f6565b5b828201905092915050565b600061055182610558565b9050919050565b600073ffffffffffffffffffffffffffffffffffffffff82169050919050565b6000819050919050565b82818337600083830152505050565b60005b838110156105af578082015181840152602081019050610594565b838111156105be576000848401525b50505050565b600060028204905060018216806105dc57607f821691505b602082108114156105f0576105ef610625565b5b50919050565b7f4e487b7100000000000000000000000000000000000000000000000000000000600052601160045260246000fd5b7f4e487b7100000000000000000000000000000000000000000000000000000000600052602260045260246000fd5b7f4e487b7100000000000000000000000000000000000000000000000000000000600052604160045260246000fd5b6000601f19601f8301169050919050565b61069d81610578565b81146106a857600080fd5b5056fea2646970667358221220d2fb72800ef269d28b2613e332c65b69d06d3b88f5c735b16ebee23a237a0fe164736f6c63430008000033",
  "immutableReferences": {},
  "source": " //SPDX-License-Identifier:MIT\npragma solidity ^0.8.0;\ncontract Donation{\n    struct Person{\n        uint id ;\n        string name;\n        uint256 amount;\n        address sender_address;//Donprs wallet address \n    }\n    uint256 id=0;\n    mapping(uint=>Person)public people;\n    function addPerson(string memory name)public payable {\n        id+=1;\n        people[id]=Person(id,name,msg.value,msg.sender);\n    }\n\n\n}\n",
  "sourcePath": "/home/nour/just/Blockchain/contracts/Donation.sol",
  "compiler": {
    "name": "solc",
    "version": "0.8.0+commit.c7dfd78e.Emscripten.clang"
  },
  "schemaVersion": "3.4.7",
  "updatedAt": "2022-09-08T14:26:41.431Z",
  "devdoc": {
    "kind": "dev",
    "methods": {},
    "version": 1
  },
  "userdoc": {
    "kind": "user",
    "methods": {},
    "version": 1
  }
}